:0200000460009A
:100000004643464200000156000000000103030081
:1000100000000000000000000000000000000000E0
:1000200000000000000000000000000000000000D0
:1000300000000000000000000000000000000000C0
:1000400000000000010408000000000000000000A3
:100050000000800000000000000000000000000020
:100060000000000000000000000000000000000090
:100070000000000000000000000000000000000080
:10008000EB04180A063204260000000000000000FD
:10009000050404240000000000000000000000002F
:1000A0000000000000000000000000000000000050
:1000B0000604000000000000000000000000000036
:1000C0000000000000000000000000000000000030
:1000D00020041808000000000000000000000000DC
:1000E0000000000000000000000000000000000010
:1000F0000000000000000000000000000000000000
:10010000D8041808000000000000000000000000F3
:100110000204180804200000000000000000000095
:1001200000000000000000000000000000000000CF
:10013000600400000000000000000000000000005B
:1001400000000000000000000000000000000000AF
:10015000000000000000000000000000000000009F
:10016000000000000000000000000000000000008F
:10017000000000000000000000000000000000007F
:10018000000000000000000000000000000000006F
:10019000000000000000000000000000000000005F
:1001A000000000000000000000000000000000004F
:1001B000000000000000000000000000000000003F
:1001C000000100000010000001000000000000001D
:1001D000000001000000000000000000000000001E
:1001E000000000000000000000000000000000000F
:1001F00000000000000000000000000000000000FF
:10020000FFFFFFFFFFFFFFFFFFFFFFFFFFFFFFFFFE
:10021000FFFFFFFFFFFFFFFFFFFFFFFFFFFFFFFFEE
:10100000D10020432914006000000000000000000F
:10101000201000600010006000E800600000000088
:101020000000006000F4000000000000FFFFFFFF70
:10103000FFFFFFFFFFFFFFFFFFFFFFFFFFFFFFFFC0
:10104000FFFFFFFFFFFFFFFFFFFFFFFFFFFFFFFFB0
:10105000FFFFFFFFFFFFFFFFFFFFFFFFFFFFFFFFA0
:10106000FFFFFFFFFFFFFFFFFFFFFFFFFFFFFFFF90
:10140000884207D0904205D251F8043B40F8043B93
:101410008242F9D8704700BF884204D2002340F8C6
:10142000043B8142FBD87047664B4FF42A01664A61
:1014300066482DE9F0475A641864654A99639546F1
:10144000BFF34F8FBFF36F8F00F030F9614B08206F
:10145000614A6249C3F854016148FFF7D1FF614A0C
:1014600061496248FFF7CCFF61496248FFF7D4FF4A
:10147000614C62494FF470000023614A086044F8EF
:1014800023200133B02BFAD15E4B80215E4A03F852
:10149000011B9342FBD14F4D4FF080385B494FF019
:1014A000FF325B4B0026DFF8A4A1DFF8A4911C609B
:1014B000C5F80481C5F800A1C5F8F480C5F8F0901E
:1014C0000B68544F43F4E0230B60FB693D4923F064
:1014D0007F0343F04003FB617B6A23F07F0343F00B
:1014E00040037B628A66CA660A674A6700F0E4F8CE
:1014F000494A4A4B6320A2630321E363484A494BAC
:10150000106000F160401E6042F8041C00F6A170FB
:101510004549464AC3F8082D0B68454A43F0807395
:101520000B601368434943F00103136003680B60C9
:1015300000F012FBC5F804813F48C5F800A1C5F8CA
:10154000F480C5F8F09000F08FFDF96E3B4A41F44D
:1015500040513B4BF9661660C2F80861C2F8186149
:10156000C2F82861C2F838619A6BD20708D442F6F3
:101570001562344959651A659A6B42F001029A6303
:101580002F4A314C936843F00113936000F006F941
:1015900000F060F800F07CFD00F010FB00F088F82F
:1015A0002368132BFCD900F097FB2368B3F5967FD3
:1015B000FBD300F07FF800F05FFD00F04DFD30BF81
:1015C000FDE700BF00C00A40AFAAAAAA070020009A
:1015D0000000072000800D4088A1000078220060F4
:1015E00000000000C022002004C4006000000020B1
:1015F000E0270020C02200200020002088ED00E02D
:10160000D916000000E400E0A0E400E024ED00E0D2
:1016100008ED00E000C00F40392800003D28000020
:1016200014E000E018E000E0FCED00E00000202005
:10163000001000E03C2700200046C3230040084083
:1016400000400D400000C056402700201B1018200D
:101650000C0D1113114B1249D86E0A4640F440305C
:1016600030B4D86640F23765D86EA02440F440709C
:10167000D8664D648C64936C1B06FCD4094B40F215
:101680003760A0211A4658649964936C13F0800364
:10169000FBD1054A137030BC704700BF00C00F403B
:1016A00000400C4000800C4051270020704700BFD4
:1016B000704700BF704700BFF0B5244A0020244B9C
:1016C0004FF0100C234C1126DFF8C8E012272060E1
:1016D0000125C2F800C0C3F800E01660DFF8B8E0EA
:1016E0001D4EC3F800E01D4917601E6041F0150152
:1016F0001B4F1C4E17601E601B4F1C4E17601E6058
:101700001B4F11601B4E1C491F6016601B4F196058
:101710001B4E1C4917601E601B4F11601B4E1C495D
:101720001F60166019602560BFF34F8FBFF36F8F86
:10173000C3F8B001BFF34F8FBFF36F8F52F8883CEF
:1017400043F4403342F8883CF0BD00BF9CED00E01C
:10175000A0ED00E094ED00E009001000E02700207B
:1017600013002000210002071400002025000813A8
:10177000090000101600202027000B13170000405E
:1017800033001013180000602F000B0719000070C1
:101790002F000B133F00001025000803F0B58D4B00
:1017A00018228D4E01208D4948F20C7E8C4D4FF051
:1017B000FF378C4C83B0C3F85C12C3F8605200252D
:1017C000C3F86412C3F868424FF40054C3F86C6263
:1017D0008549C3F87062C3F87462C3F87862834EB7
:1017E000DA661A675A679A67DA67C3F88020C3F81F
:1017F0008420C3F8882040F20562C1F82C03C1F8A8
:101800003003C1F83403C1F83803C1F83C03C1F810
:1018100050032946B36976481840764B034376480F
:10182000B361D6F8843043F00C03C6F88430022646
:10183000036833430360036803EA0E0E6F4B4EEAFE
:101840000303DFF8F0E103606D4B4760DEF80870DA
:101850003B406C4F43F000538360C36823F0780330
:10186000C360036A1F40684B3B43664F0362036AD1
:101870001F40654B3B43654F43628762C762DEF89A
:10188000B830634F23F03F0343F00103C0F8B83092
:10189000DEF8BC30DFF884E123F03F0343F00103BE
:1018A000C0F8BC30056104660767C0F88020446654
:1018B0004767C0F884200468564B24F00204564A57
:1018C0000460C0F818E0C66143F8041B9342FBD1E2
:1018D000494B1A68194642F001021A600B68464AE1
:1018E00013F00103FAD14D4E022540F2F56440F2A7
:1018F000664040F299414A4F966142F20146D561F5
:1019000040F23545C2F8004242F20124C2F810020A
:101910000120C2F820121146C2F8307207F15A476E
:10192000C2F8346207F51377C2F840523D4E3E4D7F
:10193000C2F85072C2F85462C2F86052C2F86442EF
:10194000C2F8A030C2F8A430C2F8B0004B692A4AED
:10195000DD07FBD5012300244FF48030114653618D
:10196000C2F8A040C2F8A400C2F8B0304B69224AC5
:10197000DC07FBD5012300244FF4003011465361EE
:10198000C2F8A040C2F8A400C2F8B0304B691A4AAD
:10199000D807FBD501230024244811465361C2F81F
:1019A000A040C2F8A400C2F8B0304B69124ADB076D
:1019B000FBD5D2F8003145F60D5121209BB2506184
:1019C0008B4239D01A4B00221A605A609A60DA6052
:1019D00003B0F0BD00801F40F9700100F9B00100B4
:1019E000F9100100F900010000841F4000C00F4001
:1019F000FFFCFF1F000300A000402A401200FFFF71
:101A0000FF37F70000FFF07C40000080FF000F83ED
:101A10006300020000422A4000432A40F05AF05A74
:101A20009F041830063201263806180A0400030005
:101A3000A427002000802A4000244FF480200123A6
:101A40001146C2F8A040C2F8A400C2F8B0304B69F9
:101A50003B4ADF07FBD501234FF400040020114669
:101A60005361C2F8A040C2F8A400C2F8B0304B697C
:101A7000334ADE07FBD501234FF400044FF48030D6
:101A800011465361C2F8A040C2F8A400C2F8B030B9
:101A90004B692B4ADD07FBD501234FF400044FF4BB
:101AA000003011465361C2F8A040C2F8A400C2F849
:101AB000B0304B69224ADC07FBD501234FF4000408
:101AC000204811465361C2F8A040C2F8A400C2F8F1
:101AD000B0304B691A4AD807FBD5D2F8003145F629
:101AE0000D5121209BB250618B4210D0164B082221
:101AF0004FF400041A7015490020154A0123009084
:101B0000521A1448224400F0ABFA03B0F0BD4FF46F
:101B100000044FF4802101231046C2F8A040C2F80F
:101B2000A410C2F8B03043690549DB07FBD501209A
:101B3000054B10224FF0807448611A70DBE700BF3C
:101B400000402A40040003005227002000000070DB
:101B500000000070A4270020F0B4174A40274FF47B
:101B600080314FF480564FF400554FF4404443F217
:101B70004200136913F0020F06D094615161906125
:101B8000136913F0020FF8D113F4005F01D155610E
:101B9000EFE713F4805F01D15661EAE7002BE8DA42
:101BA00013F4803F01D09161E3E75B0601D45761F4
:101BB000DFE7F0BC704700BF00800D40394A0320CA
:101BC0003949F3EE095A13689FED386A23F001038F
:101BD000DFED376AF0B4136000241061D1F8E03013
:101BE000344FD8B2C3F30B211B0D334E07EE100A4E
:101BF00005EE101A07EE903A304BB8EEC55A304D4C
:101C0000B8EEC77A3060F8EEE77A29602D4937EEF2
:101C1000466A2D4E77EEC57A2C4877EE666A2C4DD3
:101C200037EE657A26EE276AC7ED007A66EEA76A78
:101C3000176867EE277A83ED007AC6EE075A86EEBC
:101C4000876AC7EE876A35EE857AFCEEC77A36EE8C
:101C5000057A17EE903ABCEEC77A47EA035376EE60
:101C6000857A136017EE103AD2F81071FCEEE77A1D
:101C700001EA0341394317EE903AC2F81011C3F359
:101C80000B03D2F810110B43C2F81031136843F064
:101C9000020313603470C0F840510E4B0122F0BCB7
:101CA0001A60704780810D4000441F400000AA4226
:101CB0000000B442342700202C27002030270020C9
:101CC000282700200000FF0F40E400E00020002053
:101CD0009D18000008E100E0304B40F6617270B5DD
:101CE000C3F8202140F2044500F0CAF92C492D48E0
:101CF000D1F880202C4C42F003022C4BC1F88020FC
:101D0000C0F86051226813401BB9D0F8A8319A0777
:101D10001AD0244B4FF00041234A51631A46D3F89E
:101D2000401141F00201C3F84011D2F840319B0745
:101D3000FBD44FF400301E491B4B4FF000420860AB
:101D400019209A6300F094F91A4D0022164B4FF0B7
:101D50008041144C0A26996328461A601146C4F83B
:101D6000A8614FF4207200F08FF94FF4810640F221
:101D700043114FF48000104B104A2E602864C4F8C1
:101D80005851C4F84811C3F804220D4A4FF40031E9
:101D900001231160C4F8403170BD00BF00800D40C8
:101DA00000C00F4000002E4000900D40001C1E009F
:101DB0008CE200E00000002000200020691A0000F2
:101DC0000CE100E008B50E4B1B6E9B0700D4FBBE78
:101DD00072B60C4B00200C4AC3F8400103F160437B
:101DE0000A49A3F55F2311649D46BFF34F8F084A4C
:101DF00003F5E0430749126818461960936898474D
:101E000000441F4000002E4000C00A400300200094
:101E10001C002000000012EB2DE9F041294F0025A5
:101E200042690124B96B4FF0020E16684FF4303846
:101E300021F47C010369DFF89CC041F48021B9637F
:101E400031685768394331604FF001161E49C3F8B5
:101E500010E01D61C3F848C05C629962C3F82C8031
:101E60009F6C1A491F651D629E651C61037E184E9A
:101E700002EB03152C7A2B4601EB0414A4682660B0
:101E80002C7AED6801EB0414646825601C690CB1C0
:101E90005B692360407E0E4C02EB001393F8280030
:101EA0001A4601EB00108068046093F82840D86A55
:101EB00001EB04114B681860136B0BB1526B1A6085
:101EC000BDE8F08100C00F40B80B0505DC0600201E
:101ED00061F801003B3728194369027E03EB0212C7
:101EE000F0B4147A8C4209D01A7AFF2A06D08A42BA
:101EF00028D01A7EFF2A01D08A4201D0F0BC704758
:101F000001252E4693E806000968114217D00F4AB2
:101F100003EB061305270E4E02EB041461680F60F5
:101F2000197A02EB011189680E601C7AD96802EBFC
:101F30000412526811601A690AB15B691360057670
:101F4000F0BC704700252E46DCE700BFDC06002011
:101F500061F8010043690B4A03EB011010B4017AE8
:101F6000094C02EB011189680C60047AC16802EB2C
:101F700004125268116002690AB1436913605DF886
:101F8000044B7047DC06002061F801004369427E83
:101F900003EB0212F0B492F828408C420BD093F875
:101FA0002820FF2A07D08A422BD093F83820FF2A16
:101FB00001D08A4201D0F0BC704701252E4693E83B
:101FC00006000968114219D00F4A03EB06130527D2
:101FD0000E4E02EB041461680F6093F8281002EBB8
:101FE000011189680E6093F82840D96A02EB041247
:101FF000526811601A6B0AB15B6B13604576F0BCD6
:10200000704700252E46DAE7DC06002061F8010063
:1020100043690C4A03EB011010B490F828100A4CE5
:1020200002EB011189680C6090F82840C16A02EB4C
:10203000041252681160026B0AB1436B13605DF8C1
:10204000044B7047DC06002061F80100F8B500BFC2
:10205000F8BC08BC9E4670475FF800F079040000A9
:102060005FF800F0491600005FF800F0B10E0000C4
:102070005FF800F0751100005FF800F0555F000098
:102080005FF800F0CD2100005FF800F05D67000010
:102090005FF800F01113000045000000192900004E
:1020A00026035400650065006E007300790064002B
:1020B000750069006E006F0020005200610077001B
:1020C0004800490044000000180354006500650002
:1020D0006E00730079006400750069006E006F0087
:1020E0000403090409024900020100C03209040086
:1020F000000203000000092111010001221C000759
:1021000005830340000107050403400001090401A1
:102110000002030000000921110100012221000733
:1021200005820340000107050203200002000000B1
:1021300009024900020100C0320904000002030044
:102140000000092111010001221C00070583034042
:102150000001070504034000010904010002030017
:10216000000009211101000122210007058203401E
:102170000001070502032000020000000A06000219
:10218000000000400100010080C00F40000000037B
:102190001900000010000000E8841F40010000004A
:1021A000FF000000FF000000000000000000000031
:1021B0001800000010000000E4841F40010000002F
:1021C000FF000000FF000000000000000000000011
:1021D0001F0000003947000070C00F40000C0000D5
:1021E0001100000011000000E0841F400200000008
:1021F0002C00000012000000E0841F4001000000DD
:102200001000000011000000DC841F4002000000EC
:102210002D00000012000000DC841F4001000000BF
:102220001E0000002D47000070C00F40C0000000DD
:102230001200000013000000D0841F4001000000C5
:10224000FF000000FF000000000000000000000090
:102250001300000013000000CC841F4001000000A8
:10226000FF000000FF000000000000000000000070
:082270001C00000021470000E2
:102278000000000000000000000000000000000056
:102288000000000000000000000000000000000046
:1022980010B5054C237833B9044B13B10448AFF398
:1022A80000800123237010BD682600200000000074
:1022B80084A10000084B10B51BB108490848AFF3CA
:1022C80000800848036803B910BD074B002BFBD0FA
:1022D800BDE81040184700BF000000006C26002031
:1022E80084A10000C02200200000000000234363F6
:1022F8008363C36343640365C3658364436503669B
:10230800C364836543667047F0B500F10C06044664
:102318000D460021304617462DED0E8B91B000F08A
:1023280097FD30460021B0EE40EA00F089FD2846CE
:1023380004A90323002200F0CFFE28460623032227
:1023480007A900F0C9FE28460AA90923062200F0B9
:10235800C3FE28460DA90C23092200F0BDFE099BE7
:10236800089A0221079D68460193039302920095FB
:1023780000F096FA022102A884ED0D0A00F090FA06
:102388000DA8032184ED0E0A00F08AFADDED087A23
:1023980094ED0D1A84ED0F0AB7EEE70AB7EEC11AED
:1023A80004F0AAFBDDED077AB7EEC00B94ED0E1A28
:1023B800F1EE677AB7EEC11A84ED140AB7EEE70AB0
:1023C80004F09AFB94ED148AB7EEC00B9DED0FBA9A
:1023D800B7EEC88AB7EECBBAB7EEC09A84ED150A45
:1023E800B0EE480B04F038FBB0EE40DBB0EE480B23
:1023F80004F0E2FA9DED0E8A94ED0FAAB7EEC88AB2
:10240800B7EECAAA28EE008BB0EE490B04F0D4FA56
:10241800B0EE40CBB0EE490B04F01EFB28EE000BEB
:102428009DED0D6AB7EEC66A9BEE0D8BABEE0D0BFC
:1024380088EE0A7BA6EE0C0B80EE0A1BB7EEC70BE4
:10244800B7EEC00AB7EEC11BB7EEC11A04F054FBD1
:10245800B7EEC00BB4EE400A84ED160AF1EE10FA9E
:1024680025D604F14405F0EE4E0A0AA904A82B4625
:102478000322B7EE000A00F03DFAF7EE000A94EDE9
:10248800100A04AB2946032270EEC00A04F150007A
:1024980000F030FA201D022100F052FD04A9026864
:1024A800384600F095FD11B0BDEC0E8BF0BD002351
:1024B800A365D6E770B50C4605460121043000F047
:1024C8003FFD0168204600F06DFD05F144012046FE
:1024D8000323002200F0DAFD032305F15001204612
:1024E8001A46BDE8704000F0D1BD00BF0B46002180
:1024F80010B50446184600F005FE0368002104F1F3
:102508000C00236400F09CFC00232365636463656E
:10251800A364A365E36410BD02680D49126910B491
:102528008A420C4C04640FD100225DF8044B4263CC
:102538008263C26342640265C26582644265026660
:10254800C2648265426670475DF8044B104700BF5D
:102558007D000000CDCCCC3E2DE9F8432D49044642
:1025680002F072FB00284BD107462B49204602F0A7
:102578006BFB002842D06820002502F07BFB274B2C
:10258800064604468046DFF89C9046F8043B3046F1
:1025980000F0A8FC224B48F80C3B404600F040FCF9
:1025A800304603216563A563E563C4F8409000F0F5
:1025B800A3FC3946304600F0C3FC0C23012103601C
:1025C800304600F0BDFC062302210360304600F0CF
:1025D800B7FC032339460360404600F031FC20462F
:1025E800C4F840906563A563E56365642565E565A2
:1025F800A56465652566E564A5656566BDE8F88337
:10260800B02002F037FB044600F078FA2046BDE817
:10261800F88300BFE80A0020EC0A002040050020EB
:10262800C0040020CDCCCC3E30B5214D85B0044649
:102638001321204802F0EAF9284602F077FAD4ED8F
:10264800107A28461C49B7EEE77A53EC172B02F0AC
:1026580085FA94ED166A94ED157A2846D4ED145A45
:10266800B7EEC66AB7EEC77A1449B7EEE55A8DEDEC
:10267800026B53EC152B8DED007B02F06FFA94ED95
:10268800136A94ED127A2846D4ED115AB7EEC66A49
:10269800B7EEC77A0A49B7EEE55A8DED026B53ECEF
:1026A800152B8DED007B02F059FA05B030BD00BF47
:1026B80034140020F00A0020040B0020140B002022
:1026C8002C0B002038B5044608460D4606F0B0FD30
:1026D80023680246294620465B68984705462046F7
:1026E80002F024FA284438BD2DE9F043594C8BB048
:1026F800594D02F0D9FA2378002BFAD02B78002B09
:10270800F7D056494FF0010855480026FFF7DAFF81
:10271800544B554904AF52480393CDF810800596A1
:10272800FFF7D0FF51494E48FFF7CCFF50494C48BE
:10273800FFF7C8FF4F4906A802F072FA06A8FFF78C
:102748000BFF0446282002F095FA434632462146FC
:102758000097054600F06CFA06A802F021FA4649EF
:102768003F48FFF7AFFF454906A802F059FA06A807
:10277800FFF7F2FE8146282002F07CFA0223424647
:1027880049460097044600F053FA06A802F008FAF2
:102798003B493348FFF796FF314606A800F0F0FBA7
:1027A80038492F48FFF78EFF06A9284600F088FA17
:1027B80006A9284600F084FA06A9284600F080FAFF
:1027C800284600F09FFA284600F0A0FA2E4924482F
:1027D800FFF778FF06A8032100F0E4FB284600F085
:1027E8008DFA014606A800F027FC0B2227491C4851
:1027F80002F052FA06A800F041FB06A9204600F0B4
:102808005FFA23490246164802F0A8F9204600F06C
:1028180077FA424603A900F0DBFB204600F03CFAB9
:1028280006A9204600F04CFA1A4902460C4802F064
:1028380095F9204600F066FA204600F067FA164936
:102848000748FFF73FFF06A800F08CFB30460BB0A7
:10285800BDE8F0835C2700205F270020440B0020A0
:10286800341400209A99193F680B0020880B002027
:10287800A00B0020E80A0020B80B0020EC0A00207A
:10288800DC0B0020F80B0020100C0020280C002086
:10289800340C00204C0C0020640C002000000000C8
:1028A800002915DD9FED127A00EB8101F0EC017A29
:1028B8008142A7EEA77AF9D1B7EEC77AB1EEC70B76
:1028C800B4EE400BF1EE10FA05D1B7EEC00B70472D
:1028D8009FED057BF2E708B5B0EE470B04F010F961
:1028E800B7EEC00B08BD00BF0000000000000000EC
:1028F80000000000002A0DDD00EB8202F1EC017AF5
:10290800B0EC017A67EEA07A9042E7EE007AE3EC49
:10291800017AF3D1704700BF002300220361C2602F
:10292800C361836243610362C36283614362036379
:10293800704700BF0368DB68184700BF0368DB689F
:10294800184700BF38B50C4605460221043000F090
:10295800F7FA0168204600F025FB95ED030A2046AA
:10296800B8EEC00ABDE8384000F040BBC368012B90
:102978002DE9F04104468AB017464CD0022B39D0D5
:1029880033B3002300F1100800F11C0600F12805FC
:10299800C360C6463146284601AB03225EF804CB25
:1029A800013A51F8046B03F1040350F8045B43F84F
:1029B80004CC9E605D61F1D1201D022100F0C0FAB7
:1029C80001A90268384600F003FB0AB0BDE8F081AF
:1029D80000F1100800F1180300F114025C304146C0
:1029E80004F11C0603F010FCE36804F12805013328
:1029F800E360CEE700F1280500F1300300F12C0276
:102A08003430294604F1100803F006F8002304F1D5
:102A18001C06E360BDE700F11C0600F1240300F189
:102A280020025C30314604F1100803F051FCE368E1
:102A380004F128050133E360ABE700BF30B5294D49
:102A480085B004460821284801F0E0FF284602F036
:102A58006DF8E2682846254902F080F894ED066A88
:102A680094ED057A2846D4ED045AB7EEC66AB7EE57
:102A7800C77A1F49B7EEE55A8DED026B53EC152B5B
:102A88008DED007B02F06AF894ED096A94ED087AFE
:102A98002846D4ED075AB7EEC66AB7EEC77A154985
:102AA800B7EEE55A8DED026B53EC152B8DED007BDF
:102AB80002F054F894ED0C6A94ED0B7A2846D4EDA4
:102AC8000A5AB7EEC66AB7EEC77A0B49B7EEE55AA7
:102AD8008DED026B53EC152B8DED007B02F03EF86B
:102AE80005B030BD34140020880C0020940C002060
:102AF800A80C0020C00C0020D80C00202DE9F047BD
:102B0800484B804684B0054600F15C07064648F805
:102B1800043B404600F0E6F9434B0024DFF80CA1E3
:102B280046F8343B304602F08BFD384603F04EFC45
:102B38004FF0000E23465246C5F810E03846C5F857
:102B48001CE06A21C5F828E04FF00109C5F814E037
:102B5800C5F820E0C5F82CE0C5F818E0C5F824E071
:102B6800C5F830E0EC6003F0B5F93846022103F00F
:102B780017FA3846082103F053FA3846082103F0BB
:102B8800EFF93846082103F02DFA384621464A461F
:102B980003F0B2FA384623462246214601940094AF
:102BA80003F0CCFA234622462146384603F004FBBC
:102BB800524630461C2102F0E3FE3046494602F0F8
:102BC80055FE3046072102F0FDFD3046032102F094
:102BD800C3FD2146304602F02DFE224623463046EC
:102BE80021460194CDF80890CDF8009002F0E8FE57
:102BF8004046032100F080F92146404600F0A0F944
:102C08000346494640461C6000F09AF90221C0F884
:102C18000090404600F094F909230360284604B068
:102C2800BDE8F087400500209005002044140020EE
:102C38002DE9F04700F1080800F11006044600F1FC
:102C4800180740460D469246994600F04BF9304623
:102C580000F084F9384600F081F904F1200000F012
:102C68007DF92B6828466560DB6898474A464046E8
:102C78000899C4F800A000F055F93846002100F082
:102C880091F9606803689B6898470146304600F0F0
:102C980089F92046BDE8F08770B50446054654F822
:102CA800186B204600F0C4F9864201D0002070BDA0
:102CB8006868214603689B699847012070BD00BF7A
:102CC80070B5044650F8185B0E4600F0B1F985421D
:102CD80001D0002070BD304600F0AAF905466068B2
:102CE80003681B6898478542F3D16068314604F150
:102CF800100203681B6A9847012070BD10307047A6
:102D080018307047406803685B69184710B5044677
:102D18000121044801F07AFE04F11000BDE81040DA
:102D280000F0ACB8EC0C002008B50021043000F02D
:102D380007F9006808BD00BF08B50121043000F09C
:102D4800FFF8006808BD00BF08B50221043000F094
:102D5800F7F8006808BD00BF08B50921034801F06D
:102D680055FE0348BDE8084001F0E0BEF00C002025
:102D78003414002008B50921034801F047FE034830
:102D8800BDE8084001F0D2BEFC0C0020341400203D
:102D980008B50921034801F039FE0348BDE8084099
:102DA80001F0C4BE080D00203414002010B50648F8
:102DB8000C46092101F02AFE044801F0B7FE20461E
:102DC800BDE8104000F05AB8140D0020341400205B
:102DD80010B507480C46152101F018FE054801F00A
:102DE800A5FE20460021BDE8104000F0DBB800BF7A
:102DF800200D00203414002010B507211446064881
:102E080001F004FE054801F091FE20460021BDE8CE
:102E1800104000F0C7B800BF380D0020341400205F
:102E280010B4031F054C00F12401226843F8042F55
:102E38008B42FAD15DF8044B704700BF041000E0E4
:102E4800024B1B6840F82130704700BF041000E0B7
:102E5800094B50F821201B689B1A00EE103A9FED91
:102E6800047BB8EEC00B20EE070BB7EEC00B704723
:102E78004F1BE8B4814E5B3F041000E070B5054677
:102E8800144915482A6801F069FE2B68012B12DDE8
:102E980000246B68114903EB84030F480134D3ED18
:102EA800007AB7EEE77A53EC172B01F057FE2B6840
:102EB8005A1EA242EDDC6A68094902EB8303064800
:102EC80053ED017AB7EEE77ABDE8704053EC172B63
:102ED80001F044BE700D002034140020800D002045
:102EE800D00C002000220260426070470268002176
:102EF8004068920005F06ABD38B5054640680C4642
:102F080010B1042101F0BAFEB4F1FE5F2C6094BF49
:102F1800A0004FF0FF3001F0AFFE68602846FFF7D1
:102F2800E5FF38BD70B514460E4605461146FFF755
:102F3800E3FF3146A2006868BDE8704005F048BC70
:102F480008B503688B4205DD002903DB406800EB08
:102F5800810008BD002005F025F900BF00220260AD
:102F68004260704710B504460421406801F086FEAF
:102F7800204610BD026800214068920005F026BD79
:102F8800B1F1FE5F10B50446016094BF88004FF0B0
:102F9800FF3001F071FE60602046FFF7EBFF20462E
:102FA80010BD00BF38B5054640680C4610B1042175
:102FB80001F064FEB4F1FE5F2C6094BFA0004FF0F6
:102FC800FF3001F059FE68602846FFF7D3FF38BD8F
:102FD80070B514460E4605461146FFF7E3FF314625
:102FE800A2006868BDE8704005F0F2BBF8B5066855
:102FF80004464168751CAA0002F10A00043A20F050
:1030080007002DED028B00AFADEB000DB0EE408A4E
:10301800684605F0DDFB2A4600EB8603014620469C
:1030280083ED008AFFF7D4FFBD46BDEC028BF8BDE7
:1030380000687047406870472DE9F843D0F8008071
:1030480000AF044608464FEA88058946FFF7F0FFB7
:10305800064605F10A03484623F00703ADEB030DC6
:10306800FFF7E8FF08EB060181462046FFF79AFFC5
:103078002A466946606805F0ABFB6068B2004946BD
:10308800284405F0A5FBBD46BDE8F883F0B51D460C
:103098000C46036883B051190646174699420FDC5F
:1030A800002D0BDD7068214604EB850300EB8702D9
:1030B80051F8040B8B4242F8040BF9D103B0F0BD70
:1030C800C91A6846FFF75CFF30466946FFF7B4FF48
:1030D8006846FFF747FFE3E730B4141E03DBE21846
:1030E8000568AA4205DD08469A00002130BC05F0B3
:1030F8006DBC45689A00084605EB840130BC05F0B4
:1031080067BB00BF08B503688B4205DD002903DBF8
:10311800406800EB810008BD002005F043F800BFBF
:10312800964A974B90422DE9F043964CD3F814E019
:103138009969E6681CD9944B984240F21581934BE3
:1031480040F22765924F0344924C1A0AA7FB0232B9
:10315800D30903EB830303EB830202F2E243AB429E
:1031680028BF2B46A3F54873A4FB0335ED0804E0FC
:10317800894DA84294BF06250E25814A06F01F07EF
:10318800D2F88030AF4243F0C003C2F880300AD290
:103198007C4B26F01F061A462E43DE601368002B70
:1031A800FCDA06F01F071EF0007331D17B4C7C4A15
:1031B800D4F810C014460CEA0202A2420ABF4FF02B
:1031C800C0534FF4805200228EEA030414F0605F6B
:1031D80008D02EF0605E03F06053694C43EA0E0E8F
:1031E800C4F814E081EA020313F4405F08D0644B8A
:1031F80021F4405111431A469961936C1C07FCD481
:103208004EF0007E5E4AC2F814E0936C9906FCD436
:103218000121644C0A4601FB02F300FB03F3A342BD
:1032280009D8072A00F29580013201FB02F300FB5E
:1032380003F3A342F5D95C485C4C1844A4FB000393
:103248001B0D6C2B00F28B80352B00F28F80DFF882
:10325800888136235648DFF844C1564CDCF8009084
:10326800B0FBF2F009EA04044445B0FBF1F00BD0DE
:1032780043F400534FF480586446CCF80080CCF8EF
:1032880000302368002BFCDADFF8F4C0013ADCF8E0
:10329800103003F00703934207D002F00702644698
:1032A800CCF81020A36CDB03FCD4013989028EEA28
:1032B800010313F4E05F0CD0314B2EF4E05E01F40F
:1032C800E0511A4641EA0E0EC3F814E0936C9907D0
:1032D800FCD4394B39490344DB09A1FB0331090B01
:1032E800042928BF04214B1E1B028EEA030212F494
:1032F800407F07D02EF4407E03F44073204A43EA0F
:103308000E0353611E4B5C691A4624F000745C611D
:10331800936C9B06FCD42A4B4FF0FF32294CBD42DC
:10332800A3FB00E320604FEA9343274CB2FBF3F37F
:10333800B0FBF1F1254A2160136008D2114B26F049
:103348001F061A462E43DE601368002BFCDABDE820
:10335800F08304293FF66FAF013101225BE7DFF804
:103368007C806C231A4876E7122506E71948DFF8AF
:10337800708000FB03F043EA08086CE700A4781F9C
:1033880000C00F40000008400046C32300BA3CDCE0
:1033980023B24C001F85EB5100366E0100800D40B2
:1033A80040300080FFB19F26808D5B00819F5E16B4
:1033B80000B29F267F3001807FD1F0089F10E50082
:1033C80083DE1B43301400202C14002038270020F3
:1033D80000643F4D001BB700362000806C20008041
:1033E80000200080002857D001222DE9F04F85B039
:1033F80083462A4C2A4D2B4EDDE9028954E8003FCA
:103408002868336844E800210029F7D1264FCDE920
:1034180002893A68D31A254A4FF47A7E01971268CE
:103428000127A3FB02234FF47A72984600238B42AC
:1034380008BF42452CBFC246F2460EFB00AA54E81C
:10344800003F2A68316844E80073002BF7D10198DF
:103458000068411A15484FF47A7E00680EFB02F2A4
:10346800A1FB00014FF47A70CAEB020288460021E2
:10347800994208BF40452CBF434673461A447245DB
:1034880007D3BBF1010B0AF57A7AD8D105B0BDE8AC
:10349800F08F01F009FCD2E7704700BFA027002099
:1034A800402700203C270020041000E03827002097
:1034B80000010F4B1A181B5810B4D0685C680442FE
:1034C80005D059B1C3F884005DF8044B7047936880
:1034D80049B9084A5DF8044B1A607047C3F8880078
:1034E8005DF8044B7047044A5DF8044B1A60704756
:1034F800DC0600203830010038F001000001054BDF
:103508001A5819189268CB681A4214BF0120002073
:10351800704700BFDC060020362801D8FFF7C8BF77
:10352800704700BF362801D8FFF7E8BF0020704772
:10353800F0B44E1E0025374600E00135B0FBF2F32B
:1035480002FB130000F13704092800F13000E4B24F
:1035580098BFC4B2184607F8014F002BEDD14A199D
:1035680053704DB1013316F8014F1778E81A3770C8
:10357800834202F80149F5DB0846F0BC704700BFFA
:10358800A4484FF00F0CA44B826F42F47F02F0B5B1
:1035980082670025D0F880204FF470469F4C4FF486
:1035A800604E29464FF4806714432A46C0F880408D
:1035B800A3F88C6148F2B826A3F88EC1A3F89051FD
:1035C800B3F8880180B240F0F000A3F8880101EB5D
:1035D8004100914B0131002540011C460429034458
:1035E800A3F804E0DF805A841A865A805A81DE8163
:1035F8005A82DA825A83DA83E9D1B4F888014FF023
:103608000F0C874B4FF4704680B229464FF4604741
:103618002A4640EA0C004FF4806EA4F88801B4F8FA
:10362800880180B240F47060A4F88801A3F88C6126
:1036380048F2B826A3F88EC1A3F89051B3F88801D0
:1036480080B240F0F000A3F8880101EB4100744B10
:103658000131002540011C46042903449F80A3F83A
:1036680006E05A841A865A805A81DE815A82DA82A2
:103678005A83DA83E9D1B4F888014FF00F0C694B0B
:103688004FF4704680B229464FF460472A4640EA14
:103698000C004FF4806EA4F88801B4F8880180B259
:1036A80040F47060A4F88801A3F88C6148F2B82649
:1036B800A3F88EC1A3F89051B3F8880180B240F006
:1036C800F000A3F8880101EB4100564B01310025B9
:1036D80040011C46042903449F80A3F806E05A844D
:1036E8001A865A805A81DE815A82DA825A83DA83AC
:1036F800E9D1B4F888014FF00F0C4B4B4FF47047E9
:1037080080B229464FF460462A4640EA0C004FF43E
:10371800806EA4F88801B4F8880180B240F4706023
:10372800A4F88801A3F88C7148F2B827A3F88EC1D1
:10373800A3F89051B3F8880180B240F0F000A3F8E4
:10374800880101EB4100384B013140011C46042936
:1037580003449E80A3F806E05A841A865A805A8148
:10376800DF815A82DA825A83DA83EAD1B4F888315F
:103778000F27002241F201069BB245F6C05E1146B2
:1037880043F226053B43A4F88831B4F888319BB24C
:1037980043F47063A4F888315001244B0132034488
:1037A800042A99815981DF819E82A3F806E0198055
:1037B80019829D81F0D100220F2741F2010645F6BA
:1037C800C055114643F226045001194B01320344F7
:1037D800042A99815981DF819E82DD8019801982AE
:1037E8009C81F1D100220F2741F2010645F6C05510
:1037F800114643F2260450010E4B01320344042AB9
:1038080099815981DF819E82DD80198019829C818E
:10381800F1D1F0BD00C00F4000C03D40000003FCE6
:1038280000003E4000403E4000803E4000C01D4039
:1038380000001E4000401E400A4B30B4586A1C4627
:10384800996A626AA36A994208BF9042104619466B
:103858000CBF01250025002DF3D0D90B30BC41EA5F
:103868004240704700400D4008B503684268BBB14C
:103878007AB1104BA3FB0213DB0803EB4303B2EB53
:10388800830303D0D21A4260F02A02D901231846D2
:1038980008BD04F081FC1C2200230260184608BD04
:1038A800044BA3FB0213DB0803EB4303B2EB8303D4
:1038B800E8D1E9E7ABAAAAAA70B5044600283AD02D
:1038C80019B1B2FA82F56D09FDB1206808B16268D4
:1038D80032B904F061FC162300220360104670BD63
:1038E8001849A1FB0231C90801EB4101B2EB810182
:1038F800EFD1A3680BB105F069F80023012223601A
:1039080010466360A360E36070BD1E46049B80E8B8
:103918000600C360FFF7A8FF02460028DED016B9EC
:103928000122104670BD94E80500A660294605F0FE
:103938004DF80122D2E704F02FFC1623224603603B
:10394800CCE700BFABAAAAAA72B6EFF30583494D2C
:103958006B60EFF30883484C2E4648484849494A6B
:1039680024680068096812682961AC60E8606A61C7
:103978009A69454CAA61DB69444FEB6100F0C8F8CD
:1039880085ED080AFFF758FF0B234FF0FF326862F6
:1039980019462B604A40202102F00103013904FB3B
:1039A80003F383EA5202F7D1BE4202D056F8041F4D
:1039B800F0E730498A62BFF34F8F354B354A1960BB
:1039C8001A60BFF34F8FBFF36F8F334A0225334C12
:1039D800D36E334943F440533248D3662560D369E4
:1039E80023F07F0343F04003D3610B6883423ED842
:1039F8002A4A002101202C4E11604FF0FF33C2F8F3
:103A080008110C46C2F800611546C2F808010746BD
:103A1800DFF8C0E0254E26482649274ACEF8003070
:103A2800336003600B60136001E000F055F9D5F8CE
:103A38000C211A4B002AF8D00134C5F80C714F2C10
:103A4800F3D91E4A02241E484FF00041C0F84041F5
:103A58005163D3F80C2132B91A491B4A0A63D3F8C7
:103A68000C010028FAD0194B194A1A60FEE7FFF733
:103A780057FBBDE780FF272028ED00E02CED00E094
:103A880034ED00E038ED00E02083B8EDA4FF2720F6
:103A980070EF00E0A0FF272000C00F400040084062
:103AA80030140020803DCD0B009F240084E100E00D
:103AB80088E100E08CE100E090E100E000900D403A
:103AC80000002E4000800F40F100AD0B0CED00E02F
:103AD8000400FA0580E100E0094A08B5136820B13E
:103AE80018440849884202D81060184608BD04F0F6
:103AF80053FB0C224FF0FF330260184608BD00BF8D
:103B0800101800200000282030BFFDE7FFF71CBF79
:103B180012490B68114A5B07FBD513681049C3F3B8
:103B28000B23104A07EE903A0B6892ED006AB8EE44
:103B3800E77A07EE903A0C4AF8EE677A0B4BD2ED2B
:103B4800006A77EE677A93ED007AB8EE477A67EE07
:103B5800867A87EEA60A37EE400A704780810D40C4
:103B68002827002030270020342700202C27002079
:103B7800836BF0B41BB1536843F40043536072B6CF
:103B8800446B5CB31C4B2260D3F8B0410C4215D196
:103B98001A4E376804E03468E41BB4F5166F0BD28C
:103BA800D3F8404144F48044C3F84041D3F8B851B5
:103BB800D3F840416404EED50D4003D0426362B6A9
:103BC800F0BC70470C4C8260C560D4F8B031194322
:103BD800C4F8B011426362B6F0BC7047064D82600B
:103BE800C460D5F8B0311943C5F8B0110263426317
:103BF80062B6F0BC704700BF00002E40041000E021
:103C080070B50646006B90B10246002403E01268C6
:103C18000134012A0CD0536813F08003F7D03263C3
:103C28002CB1B36B05689847013C2846F9D170BDA3
:103C380033637363F4E700BFF0B5E1B9214C22495F
:103C48000020224B01224FF0011580260A601A46F7
:103C5800A1604E60E060C3F8BC51D3F8B0411C4D80
:103C680044F001048860C3F8B0412860D2F8B0314C
:103C7800002BFBD1F0BD0904164B144D0126114C45
:103C880041F0800100221E60596000F5805CE2640A
:103C980000F5005EA36400F54057D5F8B01100F5B3
:103CA80080462A46986041F48031C3F80CC0C3F8B6
:103CB80010E05F619E61C5F8B011D2F8B031002BF9
:103CC800FBD1BCE7000000208027002000002E4028
:103CD800F0260020602700202DE9F04FB04C83B07B
:103CE800D4F8448118F0010FC4F844816FD0D4F897
:103CF800AC31002B66D04FF0011BDFF8C892A94FFA
:103D08002646DA46C4F8AC31B86AFA6AD4F84031C3
:103D180043F40053C4F84031D4F840319D04F5D53C
:103D2800D6F8403123F40053C6F84031C6F8B4A1A0
:103D3800D4F8B43113F00113FAD181B2C9F80030C4
:103D4800B1F5A06F00F0488100F2BB80822900F035
:103D5800938140F2CF80B1F5817F00F05D8140F220
:103D68000233994240F0BE8092B202F07F03072BE3
:103D780000F2B88012F0800F4FEA83038A4A4FF0AE
:103D880000014FF001001A44136814BF43F4803354
:103D980043F0010313608022844BF964BB6418600C
:103DA8005A60C4F8BCB1D4F8B021996042F48033A9
:103DB800C4F8B031D4F8B031002BFBD1D4F8AC3111
:103DC800002B9FD1764AD2F8BC31002B47D118F08E
:103DD800400F16D0724BD3F8AC211946C3F8AC216A
:103DE800D3F8BC21C3F8BC21D1F8B0316C4A002B00
:103DF800FAD14FF0FF306E49C2F8B401D2F88421ED
:103E08000B6018F0807F03D06A4B1B6803B198479A
:103E180018F0007F03D0684B1B6803B1984718F06F
:103E2800040F08D05E4BD3F8843113F4007345D0E7
:103E3800624B01221A705A4BD3F8482112060BD54F
:103E480018F0800F08D05E490A782AB1013AD2B238
:103E58000A70002A00F0178203B0BDE8F08F5949B4
:103E6800C2F8BC310868034240F0B181504A156875
:103E78001D40ACD02E0C0FD04A4F4FF0010996FAD6
:103E8800A6F4B4FA84F407EBC41009FA04F4403039
:103E9800FFF7B6FEA643F2D1ADB2002D97D0414F41
:103EA800012695FAA5F4B4FA84F407EBC41006FACF
:103EB80004F4FFF7A5FEA543F3D188E73F4A137042
:103EC800B9E7B1F5086F00F0F58022D9B1F5106FA8
:103ED80000F0FE8040F62115A94203D1110C0829F3
:103EE80040F22681C4F8C0B1D4F8AC31002B7FF47D
:103EF80009AF67E78029F5D1334A022110461370CC
:103F08005370FFF799FED4F8AC31002B7FF4FAAE6A
:103F180058E7A1F5D0610129E4D82C4B596800294C
:103F2800E0D0000C1FFA82FE03E00C335968002928
:103F3800D8D01D888542F8D15D887545F5D1050A28
:103F4800032D00F07B811B89120C934228BF134676
:103F5800B0F5007F00F06381B0F5E06F00F04C81B0
:103F68001B4D1A460193284604F032FC019B25F0AC
:103F78001F021D44BFF34F8F16490A602032954235
:103F8800FAD8BFF34F8FBFF36F8F11481946FFF769
:103F980053FED4F8AC31002B7FF4B4AE12E700BF67
:103FA80000002E4000000020C0012E408027002085
:103FB800F426002044270020482700205D27002001
:103FC8005E270020F0260020F8260020500F002051
:103FD8000000202070EF00E0B24A80210125FB6438
:103FE800BA6415605160C6F8BCB1D6F8B0119360D8
:103FF80041F48033C6F8B031D4F8B031002BFBD18E
:10400800030C5B0643F08073C6F85431D4F8AC3126
:10401800002B7FF477AED5E692B202F07F03072B30
:104028003FF660AF12F0800F4FEA83039E4A4FF0CD
:1040380000014FF001001A44136814BF23F48033C1
:1040480023F0010313608022964BF964BB64186067
:104058005A60C4F8BCB1D4F8B021996042F48033F6
:10406800C4F8B031D4F8B031002BFBD1D4F8AC315E
:10407800002B7FF447AEA5E692B202F07F01072934
:104088003FF630AF89008848884D0844016810061B
:104098002B706B7040F19780CA0301D501232B70F8
:1040A80002218248FFF7C8FDD4F8AC31002B7FF419
:1040B80029AE87E67E4A01217C4B127818461A7091
:1040C800FFF7BAFDD4F8AC31002B7FF41BAE79E6CC
:1040D800C0F30740764A77494FF0CC151070764AFE
:1040E8000193C6F8C851C6F8CC11C6F8D02100F023
:1040F800B3FA00F019FA6B4A019B80210120BA64D7
:1041080051601060FB64C6F8BCB1D6F8B01193607A
:1041180041F48032C6F8B021684A1360D4F8B0314F
:10412800002BFBD1D4F8AC31002B7FF4EBAD49E682
:10413800DFF894E14FF0E90C614D8EE8050085F851
:1041480000C001B309045F4AFB60012041F080030D
:10415800BA60106005F5005E536005F58050D6F82A
:10416800B03105F54051956005F5804543F00103F0
:10417800D060C2F810E051619561C6F8B031D4F84A
:10418800B031002BFBD1474B012048F280020021BF
:1041980018604FF48030BB645A60F964C4F8BCB14D
:1041A800D4F8B021996042EA0003C4F8B031C9F8E4
:1041B8000000D4F8B031002BFBD1D4F8AC31002B7F
:1041C8007FF4A0ADFEE5CB077FF56AAF66E73E4812
:1041D80000263E4C05680E60A54240687FF446AE56
:1041E8003B4988427FF442AE35490878A9282BD04C
:1041F800384A0121117039E637481A46374D90F888
:1042080000E0374937480193BEF1000F08BF014667
:10421800284604F0DDFA0722019B6A70A7E62E48BB
:104228001A46304905782E480193002D08BF0146EB
:104238002A4804F0CDFA294D019B98E6120C0B7818
:10424800934228BF134687E648784528D0D1887816
:10425800C228CDD1C9786B29CAD172B62248017853
:1042680041F004010170D2F84811080606D441F063
:1042780080018020C2F84401C2F8481162B61B4A86
:1042880050211170F2E518490A7802F0FB020A7011
:104298002AB9D3F8482122F08002C3F8482108F04F
:1042A8009FF800BF80270020C0012E40F82600207C
:1042B8005C2700200200CC00CC000200F026002081
:1042C800E82600206027002060260020210900033E
:1042D800010004005F2700205D2700200000202047
:1042E800E420006030210060572700205E2700206E
:1042F800002AA0F102022DE9F04714BF00274FF071
:104308000057022A01D9BDE8F0874FEAC019DFF843
:1043180040A00D4604460AEB0906002140229846B3
:10432800304604F053FB012047EA05414AF80910DA
:10433800C6F83880B060B8F1000FE4D0034BA04055
:104348001C6820431860BDE8F08700BFF4260020F1
:1043580000000020002AA0F102022DE9F04714BF56
:1043680000274FF00057022A01D9BDE8F087402204
:10437800C501DFF8449088461544002104461E46CE
:1043880009EB050A504604F021FB012247EA0841DF
:1043980049F80510CAF83860CAF80820002EE4D099
:1043A80004F11000034B8240186802431A60BDE80C
:1043B800F08700BFF426002000000020120481606E
:1043C800C36142F08002F0B44260012701F58056D3
:1043D80001F5005501F5405401F580420760C660BB
:1043E800056144618261F0BC704700BF831E022BE7
:1043F80000D97047064B0A4630B400F11004012575
:1044080003EBC01005FA04F1403030BCFFF7B0BB35
:1044180000000020831E022B00D9704710B4054B02
:1044280001240A4604FA00F103EBC0105DF8044BBE
:10443800FFF79EBB0000002040687047124A134BEC
:10444800D2F8200220F07F40984210B584B002D8FC
:1044580000EB800040000E4C01A90A22FFF768F823
:1044680001A90023204611F8012B01333AB10A2B88
:1044780020F8022FF7D11623237004B010BD5B007B
:10448800DBB2237004B010BD00441F407F96980033
:10449800E81D00200A4A10B41378C4690133042BBC
:1044A80007D9002107480B461170C4545DF8044B26
:1044B8007047D9B203481170C4545DF8044B704773
:1044C8005327002014270020124901EB801138B52A
:1044D80021F01F02034601F14005BFF34F8F0E4C38
:1044E800226020329542FBD8BFF34F8FBFF36F8F06
:1044F8000A4C4FF400350A4A04EB43141560402275
:104508002046FFF75BFF21460420FFF783FF054B9A
:104518001D6038BD600020205CEF00E0E022002034
:104528008CE100E00CE100E000211648F8B5802598
:104538000C46154F2A46154E04F048FA2A462146DD
:10454800134D144804F042FA234622464021032022
:104558003C7034702C70FFF7FDFE22460E4B402154
:104568000420FFF7C5FE2046FFF7AEFF0120FFF746
:10457800ABFF0220FFF7A8FF0320BDE8F840FFF7D4
:10458800A3BF00BF60240020532700205927002024
:1045980055270020E02200202522000070B54101A7
:1045A800124C134D03460C444FF400360D44114889
:1045B8002146202206602846FFF700FF24F01F034B
:1045C80004F12001BFF34F8F0B4A13602033994247
:1045D800FBD8BFF34F8FBFF36F8F02202946FFF739
:1045E80019FF064B4FF400321A6070BD600220209C
:1045F800602300208CE100E05CEF00E00CE100E0CB
:104608004368C069C3F30E430BB1FFF7C7BF0D4939
:1046180042018A5C002AF8D00B4910B40B4C21F8EF
:10462800103022780A490132082A94BFD3B21A46B8
:1046380023700B68074C2033A0540B605DF8044BC3
:10464800704700BF60022020042700205427002064
:10465800002700201C27002000214FF4C0721F48AB
:10466800F8B50D461E4C04F0B1F91E4E1E4B2946F6
:104678004FF480721D4825702C461D8004F0A6F961
:1046880035702A461A4E20211A4B02201A4F1D70E7
:1046980035601A4B7560B560F5603D60FFF728FE20
:1046A8002B462A4640210220FFF754FE20460134BB
:1046B800FFF774FF082CF9D1114B4A221148002149
:1046C800114C0460C3F88410C3F88020D3F8482143
:1046D80042F08072C3F84821F8BD00BFE0240020F2
:1046E8005A270020542700204C2700206023002050
:1046F80004270020562700200027002091230000CF
:1047080000002E404427002005260000F8B5144D6F
:10471800144A2B781278DBB293421DD00133124A27
:10472800124E092B124C28BF0023D05C36F81020FB
:1047380002EB401101321F2A04EB0107645C05D823
:10474800797819B126F810202046F8BDDBB22B7015
:10475800FFF724FF2046F8BD4FF0FF30F8BD00BF3B
:1047680056270020542700201C270020042700205B
:10477800600220200B4B0C4A1B781278DBB2934264
:104788000DD00133094A0A48092B0A4928BF0023DA
:10479800D25C30F8123003EB4213C85C70474FF01C
:1047A800FF30704756270020542700201C27002080
:1047B800042700206002202008B5064A064B12781C
:1047C8001B789A4201D0012008BD00F06DFA002044
:1047D80008BD00BF562700205427002038B5084CD4
:1047E800228862B10749C2F1400307480D780021C9
:1047F80003EB8513184404F0E9F80023238038BD3F
:104808004C2700205A2700206003202070B5154E41
:104818000023154D40223178144C05EB411504EB6B
:10482800811428462146FFF7C9FD24F01F0304F12F
:104838004001BFF34F8F0E4A136020339942FBD8D3
:10484800BFF34F8FBFF36F8F02202946FFF7CEFDCE
:104858003378044A0133DBB20B2B88BF0023137073
:1048680070BD00BF5A270020E024002060032020EC
:1048780070EF00E008B5084B1B782BB9074B1B8875
:10488800013B9BB23E2B00D908BDFFF7A7FFBDE84F
:104898000840FFF7BBBF00BF5B2700204C27002064
:1048A8002DE9F04F85B002900091002900F0848036
:1048B8000023424FDFF82081DFF810A1404EDFF8D7
:1048C8001CB1019301213F4B39701A783E49B8F861
:1048D800003001EB42190BBB1D461C464846FFF74A
:1048E800ABFD10F080004FF00003384956D09AF81D
:1048F80000203B7004B93568002A34D1336801249C
:104908005B1B322B53D89BF8003063B300F0CCF913
:10491800B8F80030002BE1D02A4A12781C46C3F1BF
:10492800400000EB82102A4A1044009AA2421ED38B
:10493800009B0025DDF8089022461B1B4946009382
:1049480003F046FFA8F80050FFF760FF019A214BDB
:10495800224401924A4622440292C3F88450009BA2
:104968003D70002BAED1019805B0BDE8F08F009DD9
:104978004FF0404402992A46039303F029FF039B12
:10498800144900225B1BA8F80030019BC1F8844041
:1049980018463A70284405B0BDE8F08F4023094A0C
:1049A8008AF8000012781C46A8F80030B9E7019888
:1049B8000C7005B0BDE8F08F0098D5E75B270020A4
:1049C800402700205A270020E024002058270020F4
:1049D8006003202000002E404C2700205C27002088
:1049E800094B00B583B01B788DF8070023B903F095
:1049F800FF0003B05DF804FB01210DF10700FFF78C
:104A08004FFF03B05DF804FB5C270020044B1B78C4
:104A180003F0FF020BB1FFF743BF1046704700BF1A
:104A28005C270020012070470A4B1B7813B10A4B02
:104A38001B8803B9704710B50123084C2370FFF792
:104A4800CDFEFFF7E3FE0023054AC2F88430237049
:104A580010BD00BF5C2700204C2700205B270020EA
:104A680000002E4070B5EFF3108172B60C4C23682D
:104A78008BB10C4E00255A6922607AB1956101B953
:104A880062B65D7718469B689847EFF3108172B657
:104A98002368002BEFD101B962B670BD3260EEE732
:104AA8008C26002088260020FFF7DCBF044A054B2F
:104AB8001168054A1960136801331360704700BF15
:104AC800041000E03C2700204027002002680AB3B9
:104AD800114B12491344F0B51B11FF250024DFF8D0
:104AE80044E0CD540E784D78FF2E94604EF8234064
:104AF80028BFFF268A78C978AE423346084F28BFB8
:104B08002B46934228BF13468B4228BF0B463B7067
:104B18000460F0BD704700BF00BFF7BF0C1800204D
:104B28007AE400E0C02200200020704710B5064C4F
:104B380082B003680222248801A95B68ADF80440AA
:104B4800984702B010BD00BFF0030020036810B5FD
:104B580014465B689847204610BD00BF0EB400B5E8
:104B680082B003AB53F8041B1A46019304F028FCE7
:104B780002B05DF804EB03B0704700BF10B50446FF
:104B8800FFF7A4FF204610BD024A0349034803F07B
:104B98006BB900BF281400200D290000041800205C
:104BA80010B50446006803F03DFB204610BD00BF69
:104BB80038B543688B4201D3012038BD0D46044601
:104BC8000131006803F054FF0028F6D0A36884E898
:104BD8002100002BF0D10370EEE700BFF8B50446C2
:104BE800154632B9036803B11A700023A360204642
:104BF800F8BD0E461146FFF7DBFF074648B92068A7
:104C080010B103F00FFB2760002320466360A36008
:104C1800F8BDA5603146206804F0A8FAE7E700BFB0
:104C280038B500230446036043608360037341B1D1
:104C38000D46084604F0FCFA024629462046FFF7CE
:104C4800CDFF204638BD00BF826808B50B462AB99B
:104C580071B11878B0FA80F0400908BD31B1006828
:104C680004F01AF9B0FA80F0400908BD0368F0E7CB
:104C7800012008BD03F0CEBA03F0CCBA03F0D2BAD3
:104C8800704700BFFFF776BDFFF740BDFFF794BD43
:104C9800FFF7CABEFFF7C6BE08461146FFF7B6BE05
:104CA8000846FFF79DBE00BF2DE9F843324E337822
:104CB80093B1324F3A787AB90122D9073A7037D48A
:104CC8009A0719D400225B073A7005D52C4B1A684D
:104CD80012B1EFF305820AB1BDE8F883EFF3108053
:104CE80072B61A681AB1274C217800292FD00028EB
:104CF800F2D162B6BDE8F883DFF8948098F8002016
:104D0800002ADFD00024DFF88C9005E0013498F801
:104D18000030E4B2A34213D959F824502B6828462E
:104D28001B6998470028F1D06B699B689847EDE7A5
:104D3800FFF742FDD0B9144B1B781BB93378BFE796
:104D48003378BFE7337803F0FE033370B8E7012602
:104D5800556926701D6065B1A96100B962B6002564
:104D680093681046557798472570B5E7FFF788FF91
:104D7800E1E7064B1D60F0E7FF1D002050270020EB
:104D8800842600204E2700208621006090260020DF
:104D98004F27002094260020F0B542604FF0000E07
:104DA8009DF82070BDF814609DF81C509DF81820DF
:104DB80001600372C0F814E047734681857302737B
:104DC800F0BD00BF4389F0B5DDB285B01B0A0468A9
:104DD8008DF80C508DF80D304CB1467B03AD204654
:104DE80001238DE8600000F049F905B0F0BDD0F866
:104DF80004E0BEF1000F23D0047A032C22D00E4623
:104E080017466CB905F07F058DF80C50437B3A4680
:104E180031467046009303AB00F072FB05B0F0BD5D
:104E2800022C04D165F07F058DF80C50EEE7012CBB
:104E3800ECD105F07F0545F040058DF80C50E5E70D
:104E48007046D2E7467B23F00104704603AB013677
:104E58008DF80C408DF80D50009600F051FBC4E71A
:104E680002B9027B042A18D8F0B4416100F10F0797
:104E78006AB102F10E03867B00F10E053C4603443D
:104E88004EB92170013B090A0134AB42F8D13946C9
:104E9800F0BCFFF797BF1970F4E70020704700BF18
:104EA800F0B5448985B00568E6B2240A8DF80C602F
:104EB8008DF80D405DB1407B002400920B46024600
:104EC8000194284603A900F06BF905B0F0BD4568C8
:104ED8000DB3037A032B20D07BB966F07F068DF8DB
:104EE8000C60407BFF2400920B46024603A928462B
:104EF800019400F03BFB05B0F0BD022B04D106F095
:104F08007F068DF80C60ECE7012BEAD166F03F06CE
:104F18008DF80C60E5E72846D7E7437BFF2744F088
:104F28000104009228465A1C01970B4603A98DF8E4
:104F38000C408DF80D6000F019FBC6E738B500F19C
:104F48000F04027B05462146FFF7AAFF10B94FF070
:104F5800FF3038BD287B0028FBD00E30214605F1F4
:104F68000E02AC7B2B18002006E01D78013B0131B6
:104F7800934240EA050009D00002002CF5D0013B1D
:104F88000D780131934240EA0500F5D138BD00BFE4
:104F980010B40160027143715DF8044B704700BFA3
:104FA80010B504460068FFF7C9FF0123217962792B
:104FB8008B40D040013B184010BD00BF38B50546B6
:104FC80000680C46FFF7BAFF2A79012369799340F4
:104FD8002D68013B2A7B1C408B4004FA01F120EA32
:104FE800030328461943BDE83840FFF739BF00BF1F
:104FF80090F8A23090F8A3209A4205D95A1C03448D
:1050080080F8A220987E70474FF0FF30704700BFAD
:1050180030B40025202401700572C460426030BCA1
:10502800704700BF037A10B504468BB1207801227F
:1050380063689040114683F8302183F8A50083F80F
:105048002F21606801F04AFBB0FA80F0400910BDDA
:10505800012100F003F80028E8D110BD38B5044656
:1050680040680D4607F0C0F90120207205B938BD27
:105078002046BDE83840FFF7D5BF00BF2DE9F04115
:10508800079EC4689519A54218D898460F46037814
:105098000121154642688B40044682F8301182F897
:1050A800A53082F82F1166B1069B53B1406832468D
:1050B800069903685B689847864202D00020BDE8DD
:1050C800F081606839462A4603685B6898478542DC
:1050D800F4D14146606801F001FBB0FA80F0400964
:1050E800BDE8F0812DE9F843154606460F46D2B2D1
:1050F8000178406801F062FB854202D00020BDE8DB
:10510800F8830DB30023DFF84C901C4612E090F8AA
:10511800A22090F8A33002F1010E8118934216D90B
:1051280080F8A2E0887E013488F80000A4B2A54285
:10513800234609D9706807EB030803685A694A458A
:10514800E5D09047C0B2EEE70120BDE8F883FF2024
:10515800E9E700BF812D000002B32DE9F8431646A8
:10516800994688460746002401E0A64213D9321B17
:10517800FD6808EB04013846AA4228BF2A46B31A3C
:10518800A34294BF4B4600231444FFF7ABFF00280B
:10519800EBD1BDE8F8830120BDE8F8830120704712
:1051A800F0B583B000241F4606469DF824500194AC
:1051B80000942B46089CFFF761FF08B903B0F0BDC7
:1051C800224639463046012303B0BDE8F040FFF7D8
:1051D800C3BF00BF2DE9F04F0468134685B00A46E7
:1051E8002CB1204605B0BDE8F04F01F07FB9047B33
:1051F8005949002C866814780CBF01258025B1FB1D
:10520800F6F625420295F6B20CBF01210021009165
:10521800002B63D090468346504C4344DFF84491BA
:10522800039318F801AB5B46029D0027C3469846D6
:10523800002E5AD04A4A23681068A9FB0010800C37
:1052480000FB06F02168C91A8842FBD898F80D10AF
:1052580011F0F70F6CD11AEA050F98F9100014BF76
:1052680001210021431C06D0009B994203D0C0B203
:105278000091FEF751F9012198F80F00FEF74CF95B
:105288005EB1374A20681168A9FB0131890C01FB1E
:1052980006F123681B1A9942FBD898F91100411CA2
:1052A80004D0C0B2FEF73EF900B12F43002198F8B0
:1052B8000F00FEF731F998F91120013218BF0BF8E9
:1052C800017C98F80C2062B96D00EDB2002DAFD1C9
:1052D8004346D8469B46039B4345A2D105B0BDE84B
:1052E800F08F6D08002DA3D1F2E798F80D2012F089
:1052F800F70FB0D0012198F80F00FEF70DF998F9D3
:105308001000421C04D0C0B20AEA0501FEF704F9F5
:1053180098F80F000021FEF7FFF898F91100431CD8
:10532800CFD0C0B2FEF7FEF80028C4D02F43C2E7A2
:10533800012198F80F000192FEF7EEF8074B019A49
:1053480018681168A9FB0131890C01FB06F1236873
:105358001B1A9942FBD8D2E720A10700041000E0ED
:105368003014002083DE1B430268F2B1D37CE3B122
:10537800D80703D50D4B916A1960D37C990703D5DB
:105388000B4BD16A1960D37C580703D5094B116BB5
:105398001960D37C190703D5074B516B1960D37C6F
:1053A800DB0602D5926B054B1A60704700E100E0FE
:1053B80004E100E008E100E00CE100E010E100E0B9
:1053C800036870B4002B2DD04268DC7C92E8220080
:1053D800002C30D19A688A425FD0394A9960926924
:1053E800384CC2F30116C2F3826254F826400132E7
:1053F800B4FBF2F4002952D0B4FBF1F242B1B4FB91
:10540800F2F48C4288BF0132B2F5817F4BD32E4A29
:10541800DA601B680026032401211E615C621A649D
:105428001D66196190F90E00431C3AD0C0B20021E4
:1054380070BCFEF771B872B6DA7CD60706D5234C75
:105448005A69266832409A622260DA7C940706D547
:105458001F4C9A6926683240DA622260DA7C560765
:1054680006D51C4CDA69266832401A632260DA7C59
:10547800140706D5184C1A6A266832405A63226007
:10548800DA7CD20605D5154C5A6A266832409A63EA
:10549800226062B69A688A429FD1DA68B9E72246E2
:1054A800ACE770BC7047022A08D9023A54082104B4
:1054B80042EA042201F47F010A43A9E70022A7E790
:1054C80000C00F40B4050020FF7F7F0080E100E0AE
:1054D80084E100E088E100E08CE100E090E100E098
:1054E80010B5044690F90E00431C03D0C0B2012148
:1054F800FEF712F82046BDE81040FFF735BF00BFA1
:105508002DE9F04383B00C4690461D46DDF82890FF
:105518000646FFF755FFB9F1000F0DD00DF107074B
:10552800A94415F8013B0122394630468DF8073069
:10553800FFF750FE4D45F4D1B8F1000F0ED00DF134
:10554800070704EB080514F8013B012239463046E9
:105558008DF80730FFF73EFEAC42F4D13046FFF736
:10556800BFFF012003B0BDE8F08300BF2DE9F0477D
:10557800924682B00D461C460646DDF828909DF8F6
:105588002C80FFF71DFFBAF1000F0DD00DF10707B2
:10559800AA4415F8013B0122394630468DF80730F8
:1055A800FFF718FE5545F4D1B9F1000F0FD00DF1F2
:1055B8000707A1440122394630468DF80780FFF7D6
:1055C80009FE9DF8073004F8013B4C45F2D13046FE
:1055D800FFF786FF012002B0BDE8F087704700BFE3
:1055E800704700BFF8B50C46064628220021204621
:1055F800012703F0EBF90B220949204603F086FE48
:10560800002302250748E3720749766A074AE760DC
:10561800266163626561E061A1612262F8BD00BF35
:10562800B00D00200000C8C40000C8448FC2753CFB
:1056380010B504462821FFF721FB204610BD00BF06
:105648000022034902760160C2610262704700BF0E
:1056580068040020F0B501238DB006250027282610
:10566800026AC1690446039306A801950297009649
:10567800FFF792FB2A4604A906A8FFF711FC9DF83C
:1056880010309DF811109DF8130043EA01219DF890
:1056980012209DF815509DF8143042EA0022207E11
:1056A80009B243EA052312B203281BB2E180228122
:1056B80063811ED8104D05EB800090ED006A07EE5F
:1056C800901AF8EEE76A07EE902AB8EEE77A07EE46
:1056D800903AC6EE865AF8EEE77AC7EE066A87EE83
:1056E800867AC4ED035AC4ED046A84ED057A0DB0D8
:1056F800F0BDB7EE006AE2E72804002070B50C465A
:105708002426054600213246204603F05FF9104B57
:10571800696A02221B68284626606160A2602361CC
:10572800FFF798FFD5ED037A9FED0A7A012067EE1F
:10573800877AC4ED057AD5ED047A67EE877AC4EDE9
:10574800067AD5ED057A67EE877AC4ED077A70BDDB
:10575800402700200000C842F0B5C36995B04FF05B
:10576800200E01240027026A0546CDF800E00DEB63
:105778000E000E4603941946019423460297FFF73C
:105788000BFB08A90523022204A8FFF701FC3146F8
:1057980004A8FFF713FC2A6AE96923252346029720
:1057A80003940EA801940095FFF7F6FA02230EA9B8
:1057B80006A81A46FFF7ECFB314606A8FFF7FEFBE2
:1057C80015B0F0BD0129F0B50C468DB0064625D0C0
:1057D800032927D0052929D007291BD00A2001250C
:1057E800FDF700FE0027326A2B46F169202606A83D
:1057F8000395019502970096FFF7CEFA2B4606A966
:10580800042204A8FFF7C4FB214604A8FFF7D6FB2F
:105818000DB0F0BD0021FFF79FFFDFE70321FFF781
:105828009BFFDBE70221FFF797FFD7E70121FFF78F
:1058380093FFD3E770B5026A8CB0C06901230024D6
:1058480022260D4603930146019306A8029400966A
:10585800FFF7A2FA234606A9022204A8FFF798FB3D
:10586800294604A8FFF7AAFB0CB070BDF0B50123C8
:105878008DB0044600272126026A0D4606A8E16974
:105888000393019302970096FFF786FA06A905236A
:10589800022204A8FFF77CFB294604A8FFF78EFB29
:1058A80025760DB0F0BD00BF70B501238CB0002681
:1058B8002125026A0446C16906A80393019302964A
:1058C8000095FFF769FA06A90523022204A8FFF745
:1058D8005FFB04A8FFF764FBC0B220760CB070BD74
:1058E800F0B501248DB000272126026A0546C1695A
:1058F800234606A80394019402970096FFF74CFAF2
:105908002246022306A904A8FFF742FB214604A861
:10591800FFF754FB0A20FDF765FD2846FFF7C4FF93
:105928000DB0F0BDF0B501258BB000240F27026A39
:105938002B46C1690646039504A801950294009771
:10594800FFF72AFA04A8FFF7F9FA3D2802D0204603
:105958000BB0F0BD3046FFF7C3FF30460321FFF719
:10596800FBFE29463046FFF72DFF21463046FFF75C
:105978007DFF30462146FFF75DFF28460BB0F0BD9E
:1059880030B50446C06983B068B1002301212362A1
:10599800FFF764FB08B903B030BD204603B0BDE88B
:1059A8003040FFF7BFBF10208DE80600FFF762F90F
:1059B80005469DE80600FFF72BFB2846E561E4E76E
:1059C800F0B58BB0D0F820E0C76901209DF84440BD
:1059D8009DF840C065009DF84860039045F00805B3
:1059E800019045EA8C04002544EA4314034630201C
:1059F800029544EA82147246009004A844EAC1144D
:105A08003946FFF7C9F92A46E4B204A834432146C7
:105A1800FFF726FA0BB0F0BD2DE9F0434FF0000C6C
:105A28008DB0D0F820900124C0694FF006084FF0DF
:105A3800280E0F46164601464A461D4606A80394F8
:105A48002346CDF808C0CDF80480CDF800E0FFF774
:105A5800A3F9424606A804A9FFF722FAC8B3BDF97C
:105A68001030B1EE006B204604EE103ABDF912304A
:105A780005EE103ABDF91430B8EEC44B07EE103AF3
:105A8800B8EEC55BB8EEC77B24EE064B25EE065B89
:105A980027EE066B9FED127B9FED133B25EE075B10
:105AA80024EE074B26EE077B24EE034B25EE036B13
:105AB80027EE037BB7EEC44BB7EEC66BB7EEC77BDA
:105AC80087ED004A86ED006A85ED007A0DB0BDE8E5
:105AD800F083074B2B6033603B600DB0BDE8F0836B
:105AE8000000000000005940000000000000003FD6
:105AF8000000C07F10B5054B0446406C236010B110
:105B080003685B689847204610BD00BF500400201A
:105B1800704700BF704700BF704700BF10B5074B04
:105B28000446406C236010B103685B6898472046C0
:105B38005421FFF7A3F8204610BD00BF50040020F1
:105B480010B504461021FFF799F8204610BD00BF94
:105B580010B504461021FFF791F8204610BD00BF8C
:105B680010B504461021FFF789F8204610BD00BF84
:105B7800F8B50646C0680C46242503689B68984714
:105B8800F668084B2A46204600211F6802F01EFFCF
:105B9800B18E0D2372690120256061606261276101
:105BA800A360F8BD40270020F8B50546C0680C463C
:105BB80003689B689847ED680A4B20462422002119
:105BC8001E6802F003FF696A01236F8E0422616177
:105BD8001846A96A6760A161E96A2661E161A26065
:105BE8002360F8BD4027002070B50546C0680C4604
:105BF80003689B689847ED680A4B204624220021D9
:105C08001E6802F0E3FEAA690123298E6261184624
:105C1800EA696160A2612A6A2661E2612360A36081
:105C280070BD00BF40270020F0B500238FB02026AC
:105C38000E2501270446C26B816B0DEB060002930B
:105C4800039701950096FFF7A7F82A460DEB060083
:105C580004A9FFF725F99DF810309DF81170B3EEEF
:105C6800097AD4ED106A43EA07279DF813609DF876
:105C780012303FB29DF8142043EA06269DF819E039
:105C880007EE907A9DF816309DF8155036B2B8EEAA
:105C9800E76A9DF817009DF8181042EA052543EABF
:105CA80000209DF81BC0C6EE267A41EA0E219DF819
:105CB8001A202DB29DF81DE000B29DF81C3042EA72
:105CC8000C22678109B243EA0E2394F8517012B28C
:105CD800A6811BB20C2FE5812082A180E28023815E
:105CE80077EE877AC4ED057A60D8DFF8DCE00EEB52
:105CF8008707D7ED007A07EE106A9FED2F5ADFED80
:105D08002F5AB8EEC76A07EE105AF8EEC76A07EEC0
:105D1800100A26EE276A94F85000B8EEC77A66EEA5
:105D2800A76A032826EE056A67EE277A26EE857AA3
:105D380067EE857AC7EE256A86EE255A87EEA57A3C
:105D4800C4ED0A6A84ED095A84ED0B7A31D81C4DEA
:105D580005EB8000D0ED007A07EE101A9FED195A76
:105D6800DFED165AB8EEC76A07EE102AF8EEC76AD2
:105D780007EE103A26EE276AB8EEC77A66EEA76AEB
:105D880026EE056A67EE277A26EE857A67EE857A2B
:105D9800C7EE256A86EE255A87EEA57AC4ED076A0E
:105DA80084ED065A84ED087A0FB0F0BDF7EE007A5C
:105DB800A1E7F7EE007ACFE735FA8E3C00007A4487
:105DC800380400200AE81C41F4030020F8B50C460A
:105DD8000646282200212046012702F0F7FD0B2263
:105DE8000949204603F092FA002304250748E37284
:105DF8000749B668074AE760266163626561E06142
:105E0800A1612262F8BD00BFB80D0020D7A30BC264
:105E1800D7A30B426422A03870B50C460646282248
:105E2800002120460A4D02F0D1FD0B2209492046E7
:105E380003F06CFA002201230748E2720749B668AA
:105E480062622661E561A0612162E360636170BD01
:105E58000AE81CC3C40D00200AE81C4323DB793D73
:105E6800F8B50C460646282200212046012702F0F4
:105E7800ADFD0B220949204603F048FA00234FF0F4
:105E88007E520D25E3720648B6680649E76026612A
:105E980063626561E061A1612262F8BDD00D0020F6
:105EA800000020C20000AA4200224FF0874110B42F
:105EB800074C016404608263C26342648264C26402
:105EC80080F8502080F851205DF8044B704700BFDF
:105ED800500400202DE9F04104460E46806B102145
:105EE80017469846FEF7CAFE1020FEF7C3FE054681
:105EF80031463A46FFF78CF8A56328460121FFF79B
:105F0800ADF808B9BDE8F081236841462046DB6852
:105F1800BDE8F041184700BF70B501248CB00025DA
:105F28001226C26B816B2B4606A803940194029536
:105F38000096FEF731FF06A92B46224604A8FFF774
:105F480027F8214604A8FFF739F802E00120FDF7F9
:105F580049FA04A8FFF724F80028F7D10CB070BD5F
:105F6800F0B501238DB0876B10260024C26B0D4657
:105F780003933946019306A8234602940096FEF738
:105F88000BFF042306A90DEB06001A46FFF700F8DD
:105F980029460DEB0600FFF711F80DB0F0BD00BF64
:105FA800F0B501238DB0044610270026C26B0D46BC
:105FB80006A8A16B03930193334602960097FEF758
:105FC800EBFE022306A90DEB07001A46FEF7E0FFD9
:105FD80029460DEB0700FEF7F1FF84F850500DB08D
:105FE800F0BD00BFF0B501238DB0876B00241126EA
:105FF800C26B0D4603933946019306A823460294C3
:106008000096FEF7C9FE042306A904A81A46FEF75F
:10601800BFFF294604A8FEF7D1FF0DB0F0BD00BFB1
:10602800F0B5C26B8DB0002504460123806B1127A3
:106038000E4603930146019306A82B460295009746
:10604800FEF7AAFE2B4606A9042204A8FEF7A0FF25
:10605800314604A8FEF7B2FF84F851600DB0F0BDD8
:1060680010B504460421FFF77BFF02212046FFF705
:1060780097FF20460421FFF7B5FF20460C21FFF7C4
:10608800CFFF0A20FDF7AEF9606C10B103685B68BA
:106098009847A06C10B103685B689847E06C10B132
:1060A80003685B6898471020FEF7E4FD0F49034634
:1060B8004FF4DA6260641020DC6019609A60FEF7C1
:1060C800D9FD0B49034640F2D1621020A364DC607D
:1060D80019609A60FEF7CEFD0649034640F2D26287
:1060E8000020DC60E36419609A6010BD0805002098
:1060F80024050020EC040020F0B5D0F83CC08DB099
:10610800D0F838E00124002312270E4615467146C0
:106118006246029306A8039401940097FEF73CFE9A
:1061280006A90423022204A8FEF732FF04A845EAC0
:106138004601FEF743FF0DB0F0BD00BF2DE9F04F5B
:1061480092461E4693B00124002580460D27806B99
:10615800894646EA4A06D8F83C202B46014600976D
:1061680006A80394019402959DF870B09DF8747088
:10617800FEF712FE46EA89015E262A4606A841EA8B
:10618800CB11FEF76DFED8F83C20D8F838102B4616
:1061980003940CA8029501940096FEF7FDFD224693
:1061A8000CA9052304A8FEF7F3FE394604A8FEF758
:1061B80005FF13B0BDE8F08F2DE9F041D0F83CC0E1
:1061C8008CB0806B4FF00E0E00250126CDF800E054
:1061D8000F4690461C46624601462B4606A8039683
:1061E80001960295FEF7D8FD2B4606A9032204A8BE
:1061F800FEF7CEFE04A844EA480141EA8701FEF70B
:10620800DDFE0CB0BDE8F0812DE9F0434FF0280C1D
:106218008DB0D0F83C904FF0000E806B4FF0060820
:1062280001240F46164601464A461D4606A8039411
:106238007346CDF808E0CDF80480CDF800C0FEF72D
:10624800ABFD424606A804A9FEF72AFE88B3BDF9AD
:106258001030B1EE004B204605EE103ABDF9123071
:1062680006EE103ABDF91430B8EEC55B07EE103AE9
:10627800B8EEC66BB8EEC77B25EE045B26EE046B62
:1062880027EE047B9FED0E4B25EE045B26EE046B98
:1062980027EE047BB7EEC55BB7EEC66BB7EEC77BE0
:1062A80087ED005A86ED006A85ED007A0DB0BDE8ED
:1062B800F083054B2B6033603B600DB0BDE8F08385
:1062C800000000000000003F0000C07F0000000048
:1062D8002DE9F0434FF0220C8DB0D0F83C904FF0F0
:1062E800000E806B4FF0060801240F461646014643
:1062F8004A461D4606A803947346CDF808E0CDF833
:106308000480CDF800C0FEF747FD424606A804A960
:10631800FEF7C6FD88B3BDF91030204604EE103AEA
:10632800BDF9123005EE103ABDF91430B8EEC44B81
:1063380007EE103AB8EEC55BB8EEC76B9FED127B5F
:106348009FED133B25EE075B24EE074B26EE077BFC
:1063580024EE034B25EE036B27EE037BB7EEC44B0D
:10636800B7EEC66BB7EEC77B87ED004A86ED006ACD
:1063780085ED007A0DB0BDE8F083074B2B603360E4
:106388003B600DB0BDE8F0830000000000409F4076
:10639800000000000000003F0000C07F034B10B564
:1063A80004460360FFF7A6FB204610BDA8040020A2
:1063B800054B10B504460360FFF79CFB54212046AB
:1063C800FEF75CFC204610BDA804002010B504466A
:1063D800FFF76AFD014B2046236010BDA80400208A
:1063E8002DE9F041836B9AB0012500240F27C26B79
:1063F8000646884608A8194603952346019502943F
:106408000097FEF7C9FC08A8FEF798FD6C2803D092
:1064180020461AB0BDE8F0811FFA88F330461827E5
:1064280059199A1C33867186B286FFF775FD1223B7
:10643800F26B0EA8B16B0093234603950294019565
:10644800FEF7AAFC2A460EA9062304A8FEF7A0FD1B
:10645800294604A8FEF7B2FDF26BB16B23460395FB
:1064680014A8029401950097FEF796FC2B462A463D
:1064780014A90DEB0700FEF78BFD29460DEB07006D
:10648800FEF79CFD41463046FFF7EAFD28461AB064
:10649800BDE8F08170B440F20125046825611BB3A2
:1064A8001E46F1B10D780131013B6566256FAD07D8
:1064B80006D4656F013EEDB212B115700132046861
:1064C8006569ED07F2D5002BEBD16EB101680B6F52
:1064D8009B07FCD44B6FDBB20AB113700132013E4B
:1064E800F3E790F83C50DFE770BC70470BB1FFF75B
:1064F800D1BF704790F8A32090F8A200101A7047F7
:1065080090F8A23090F8A3209A4202D90344987ECA
:1065180070474FF0FF307047704700BFB0F8303118
:1065280093B190F82F31882B0BD8C21810B45C1C8B
:10653800012380F82F41184682F8A5105DF8044B16
:1065480070470122002302711846704738B5054686
:10655800B0F8300190B195F82F311446C3F1890293
:1065680094420CD805F1A5002246184402F030F9EF
:1065780095F82F3120461C4485F82F4138BD144624
:1065880001222A71EEE700BF2DE9F04F834640480B
:1065980083B01525DBF814A09BF818609BF8193018
:1065A8000AEB06163B490AEB0313DFF8ECE0367AF0
:1065B8000C4693F828303601DFF8E0901B01871964
:1065C80050F8068000EB030CC658F8687B68DCF8C6
:1065D8000C7000931D60C8F88400D8F80430DCF80B
:1065E800042003430192C8F804301560C6F884708B
:1065F80073683B4373600968DEF80030A9FB033217
:10660800920C02EB8202520023685B1A9A42FBD872
:10661800204A0925DFF884C09146D8F80830184286
:1066280002D0B3681F4231D1C6F888701468DEF80A
:106638000010ACFB0131890C01EB810113681B1BB5
:106648009942FBD8C6F88470D9F80040DEF80010EB
:10665800ACFB0131890C01EB810113681B1B9942CA
:10666800FBD8013DD9D128469BF81830009A0AEB8F
:106678000313DB6813609BF81930019A0AEB031ABD
:10668800DAF82C30136003B0BDE8F08F0120EBE797
:10669800DC060020041000E03014002083DE1B43D9
:1066A8000D49026910B50C6805E0DB0107D40B68D9
:1066B8001B1B102B08D8536913F0007FF5D14FF43A
:1066C800FE430120536110BD0446FFF75DFF00281B
:1066D800F9D02269F3E700BF402700202DE9F047F1
:1066E80090F82FA1BAF1000F02D10420BDE8F0877D
:1066F80005460E46FFF7D4FF0028F6D02E4F00249B
:106708004FF40079D7F80080544529691AD8CB6D21
:1067180003F00703032B09D914E095F8A5200133EA
:10672800012442F48062042B0A660BD02A19002C3B
:10673800F3D0A24527D9013392F8A5200134042BC0
:106748000A66F3D14B69180522D45A0527D4980450
:1067580004D43A68C8EB0202322A09D90B694FF40B
:106768000072042043F440730B610A66BDE8F087A9
:10677800544505D9CA6D520702D19B0519D4C6B133
:10678800FEF792FAC0E70EB1C1F860900134D9E77C
:106798000B69042043F440730B61BDE8F0870B6973
:1067A8004FF40072022043F440730B610A66BDE89F
:1067B800F0870020BDE8F087402700202DE9F84F3A
:1067C8000C46154698468146FFF76AFF10B9042023
:1067D800BDE8F88F00226300002D40F2014A1446FC
:1067E800DBB23D4E08BF0125022C43EA0A0AD6F85F
:1067F80000B089F8A22089F8A32048D9D9F8103028
:1068080099F8A320872A12D8D96DC1F3024111B98A
:106818000DE0882A0BD002F1010E09EB02000139C4
:106828005FFA8EF289F8A3201F6F8776F1D15A6933
:1068380010054CD412F4105F04D13168CBEB010180
:10684800322912D91A694FF4007142F440721A6160
:106858001966DA6D12F4E02F03D01A6942F4007257
:106868001A6199F8A300BDE8F88F99F8A310A94216
:1068780009D3022C07D9D96D490704D19205E8D468
:10688800B8F1000FE5D0FEF70FFA022CB6D8D9F808
:106898001020D36D03F00703032B0DD8691E4FF4A6
:1068A800007041F480714CB9C2F860A0013B01341A
:1068B800032B01D8022CF6D91346A1E7012C04D0EA
:1068C800B8F1000FF2D01066F0E71166EEE71A692A
:1068D80042F440721A61BCE740270020036970B592
:1068E800D3F81451044615F4706201D0C3F814218A
:1068F800AE070BD5D3F87011080442D50022012049
:1069080084F8A220224484F8A3009176EA0710D5DF
:1069180094F8306116B394F82E6194F82F21B2429E
:106928002BD9721C264484F82E2196F8A520C3F88A
:106938006021AB0511D594F8A30018B1D4F83C3107
:1069480003B19847002384F8A23084F8A33084F870
:106958002E3184F82F3184F8303170BDD4F83821C5
:106968000AB1904723690122002184F8302194F864
:106978002F2184F82E11B242D3D80022C3F8602107
:10698800D7E794F8A320872AC0D8501CC0B2B9E72B
:106998000148FFF7A3BF00BF441400200148FFF7D8
:1069A8009DBF00BF841500200148FFF797BF00BFB7
:1069B800C41600200000000000B5B0EE407B17EEC2
:1069C800903A234A23F00043934285B019DD214AC7
:1069D800934204DD30EE400B05B05DF804FB6846D9
:1069E80000F0D2F900F0030001281AD002280FD0D5
:1069F80000B301209DED021B9DED000B00F0A4FFEC
:106A0800EAE79FED111B00F0CFFB05B05DF804FB32
:106A18009DED021B9DED000B00F0C6FBB1EE400B97
:106A2800DAE79DED021B9DED000B00F08DFFB1EE46
:106A3800400BD1E79DED021B9DED000B00F0B4FB70
:106A4800CAE700BFAFF300800000000000000000AC
:106A5800FB21E93FFFFFEF7F00B5B0EE407B17EE6B
:106A6800903A234A23F00043934285B01ADD214A25
:106A7800934204DD30EE400B05B05DF804FB684638
:106A880000F082F900F0030001281DD0022811D07F
:106A980008B39DED021B9DED000B00F085FBB1EEE8
:106AA800400BE9E700209FED101B00F04DFF05B0FB
:106AB8005DF804FB01209DED021B9DED000B00F02D
:106AC80043FFB1EE400BD7E79DED021B9DED000B98
:106AD80000F06AFBD0E701209DED021B9DED000B45
:106AE80000F032FFC8E700BF00000000000000000F
:106AF800FB21E93FFFFFEF7F00F056B800000000E0
:106B080000B52DED028BB0EE408B8BB000F08AFA09
:106B1800234B93F900305A1C0BD0B4EE488BF1EE9E
:106B280010FA06D69FED1C7BB4EEC78BF1EE10FA77
:106B380004D40BB0BDEC028B5DF804FB01221949AB
:106B4800009200228DED048B8DED028B019108924D
:106B580093B187EE076B022B8DED066B0ED101F01A
:106B68001BFB21230360089B73B99DED060B0BB03B
:106B7800BDEC028B5DF804FB8DED067B684601F0E9
:106B8800D3F80028EFD1EAE701F006FB089B036081
:106B9800EBE700BFAFF3008000000000000000003A
:106BA800FE1D0020DC0D0020F0B585B08DED021B28
:106BB800029A0398724953428DED000B134320F05B
:106BC800004545EAD3738B429DE8900042D8634262
:106BD800234327F0004E4EEAD3738B423AD800F194
:106BE800404303F58013134353D0861706F002067B
:106BF80054EA0E0346EAD77634D052EA05033ED06B
:106C08008D4252D08E453AD0C5EB0E052D153C2D40
:106C180044DC00286BDBDDE900239DED020B43EC2F
:106C2800172B87EE000B00F0E9FF00F0E5FE53ECB0
:106C3800102B012E56D0022E49D0002E44D09FEDA5
